:100000000C9434000C9449000C9449000C94490061
:100010000C9449000C9449000C9449000C9449003C
:100020000C9449000C9449000C9449000C9449002C
:100030000C9449000C9449000C9449000C9449001C
:100040000C9449000C9449000C9449000C9449000C
:100050000C9449000C9449000C9449000C944900FC
:100060000C9449000C94490011241FBECFEFD4E03A
:10007000DEBFCDBF11E0A0E0B1E0EEE2F5E002C0EE
:1000800005900D92A231B107D9F70E945E020C943F
:1000900095020C9400008BB9662381F498B9292F3E
:1000A000229526952695237020FF02C0289A01C02C
:1000B000289821FF02C0299A0895299808952F9A17
:1000C0002E982C9A90E060E070E00E944B002A98F5
:1000D0002A9A2E9A08952F982E982C9A90E061E0F3
:1000E00070E00E944B002A982A9A2E9A08950F9346
:1000F0001F9384B1846D84B98FEF8AB987B18F6300
:1001000087B984B1836084B92E9A2C9A2A9A2F9A3F
:1001100088EE93E028EC30E0F9013197F1F7019790
:10012000D9F782EE90E00E946B0083E290E00E949B
:100130005F0082E090E00E945F0084E090E00E9417
:100140005F0080EE90E00E946B0081E090E00E94F2
:100150005F0080ED97E00197F1F783E090E00E9467
:100160005F0080E29EE40197F1F781E090E00E9459
:100170006B0000E117E2C8010197F1F786EE90E00D
:100180000E946B0084E090E00E945F0083E990E0B1
:100190000E945F0080EE90E00E945F0080EB90E0A4
:1001A0000E946B0080E090E00E945F0080E090E0A1
:1001B0000E945F008091010190E00E945F008091A9
:1001C00000019091010190700E945F0080910A01EE
:1001D00090E00E945F008091090190910A01907067
:1001E0000E945F0080E090E00E945F0084EB90E05E
:1001F0000E946B008091030190E00E945F0080915B
:1002000002019091030190700E945F0080910501AE
:1002100090E00E945F008091040190910501907030
:100220000E945F008091080190E00E945F00809131
:10023000070190E00E945F00809106019091070104
:1002400090700E945F0080E090E00E945F0086EB6B
:1002500090E00E946B0080910C0190E00E945F0092
:1002600080910B0190910C0190700E945F00809131
:100270000E0190E00E945F0080910D0190910E01AF
:1002800090700E945F008091110190E00E945F00D9
:100290008091100190E00E945F0080910F01909189
:1002A000100190700E945F008AEB90E00E946B004A
:1002B0008FE090E00E945F0088EB90E00E946B006E
:1002C00087E090E00E945F0081E090E00E945F0084
:1002D00086E390E00E946B0080E090E00E945F0067
:1002E00080EF90E00E946B0083E090E00E945F004E
:1002F000C8010197F1F786E290E00E946B0088E068
:1003000090E00E945F0089E290E00E945F008EEB27
:1003100090E00E946B0081E090E00E945F0088E81E
:1003200090E00E945F0081E090E00E945F0080EF1B
:1003300090E00E945F0080E090E00E945F0080E01B
:1003400090E00E945F002E9A2C9A2A9A2F9A1F9171
:100350000F9108951F93182F8EEB0E946B0081E080
:100360000E945F00812F0E945F0081E00E945F0079
:1003700080EF0E945F0080E00E945F0080E00E94AA
:100380005F001F910895AF92BF92CF92DF92EF92DC
:10039000FF920F931F93F82E192FB62ED72EE42E0F
:1003A000052FA22EC32E8AE20E946B00812F0E948D
:1003B0005F008F2D0E945F00802F0E945F008E2DB6
:1003C0000E945F008BE20E946B008D2D0E945F00F7
:1003D0008B2D0E945F008C2D0E945F008A2D0E9451
:1003E0005F001F910F91FF90EF90DF90CF90BF9033
:1003F000AF9008950F931F93CF93DF938CE20E94E9
:100400006B00C0E0D0E02FC081E0C139D80758F4BC
:1004100081E0CF35D80790F481E0CD32D80798F449
:10042000CB3FD10510F08FEF11C0C93CD10568F466
:10043000C739D10518F4C536D10510F08FE106C0D3
:10044000C333D10510F080EE01C080E00E945F0050
:100450000F5F1F4F83E000321807B1F6219681E04D
:10046000C03ED80719F000E010E0CECFDF91CF9169
:100470001F910F910895DF92EF92FF920F931F93B8
:10048000D62E8CE20E946B00EE24FF2487018D2D76
:100490000E945F000894E11CF11C011D111D80E009
:1004A000E8168CEDF80685E0080780E0180779F774
:1004B0001F910F91FF90EF90DF900895CF93DF93FE
:1004C00080E197E228EC30E0F9013197F1F70197EC
:1004D000D9F70E947700C8ECD0E060E078EF80E0C8
:1004E00090E00E943B0280E197E2FE013197F1F734
:1004F0000197D9F760EE77E080E090E00E943B0240
:1005000080E197E2FE013197F1F70197D9F76FE1AA
:1005100070E080E090E00E943B0280E197E2FE0103
:0E0520003197F1F70197D9F7D8CFF894FFCFB4
:10052E001F03E8033300030008DF0112021800174F
:02053E000003B8
:00000001FF
